:100000000C9425020C9442020C9442020C9442027D
:100010000C9442020C9442020C9442020C94420250
:100020000C9442020C9442020C94BF240C9493252D
:100030000C94DF1F0C9442020C9442020C94420276
:100040000C9442020C9442020C9442020C94420220
:100050000C9442020C9466200C9442020C944202CE
:100060000C9442020C9442020C9442020C94420200
:100070000C9442020C9442020C9442020C944202F0
:100080000C9442020C9442020C9442020C944202E0
:100090000C9442020C9442020C9442020C944202D0
:1000A0000C9442020C9442020C9442021007130575
:1000B00012050C0518051E0F0500047F3F1F643252
:1000C00014643214783C1E1E140A052223252628A7
:1000D000292A2C2D2F3032333536383A3B3D3E40DD
:1000E00042434547494A4C4E5051535557595A5C23
:1000F0005E6062646668696B6D6F71737577797B3A
:100100007D7F81838587898A8C8E90929496989A38
:100110009C9E9FA1A3A5A7A8AAACAEAFB1B3B4B64D
:10012000B8B9BBBCBEBFC1C2C3C5C6C7C9CACBCCA8
:10013000CDCED0D1D2D2D3D4D5D6D7D7D8D9D9DA7B
:10014000DADBDBDBDCDCDCDCDCDDDDDDDDDCDCDCF0
:10015000DCDCDBDBDBDADAD9D9D8D7D7D6D5D4D318
:10016000D2D2D1D0CECDCCCBCAC9C7C6C5C3C2C1ED
:10017000BFBEBCBBB9B8B6B4B3B1AFAEACAAA8A74A
:10018000A5A3A19F9E9C9A98969492908E8C8A8902
:10019000878583817F7D7B79777573716F6D6B69DF
:1001A00068666462605E5C5A5957555351504E4CB4
:1001B0004A4947454342403E3D3B3A383635333263
:1001C000302F2D2C2A292826252322FFAA7F5540AF
:1001D000000101010101010101010202020202020A
:1001E00002020203030303030303030404040404DD
:1001F00004040505050505060606060607070707A4
:100200000708080808090909090A0A0A0B0B0B0C58
:100210000C0C0D0D0D0E0E0E0F0F0F1010111111F5
:100220001212131314141515161617171818191976
:100230001A1A1B1B1C1D1D1E1E1F202021222223DB
:100240002424252626272829292A2B2C2D2D2E2F1C
:1002500030313232333435363738393A3B3C3D3E33
:100260003F404142434445464748494A4C4D4E4F22
:1002700050515354555658595A5B5D5E5F616264E4
:10028000656668696B6C6D6F7072737577787A7B71
:100290007D7E8082838587888A8C8E8F91939596C8
:1002A000989A9C9EA0A2A3A5A7A9ABADAFB1B3B5E8
:1002B000B7BABCBEC0C2C4C6C9CBCDCFD1D4D6D8C4
:1002C000DBDDDFE2E4E7E9EBEEF0F3F5F8FAFDFF62
:1002D00010036200690067004B004E004F004200AF
:1002E00000001E036C00650061006600630075007D
:1002F00074007400650072006C006100620073009D
:1003000000000403090409023B00020100A0FA09ED
:100310000400000103010100092111010001224034
:100320000007058103080001090401000103000022
:100330000009211101000122B600070582032000F7
:10034000011201000200000008EBCE0700010001CD
:1003500002000105010902A10185020901A10005B0
:100360000919012908150025019508750181020563
:1003700001093009311581257F950275088106092B
:10038000381581257F950175088106050C0A38020C
:100390001581257F950175088106C0C0050109807A
:1003A000A101850319012AB700150126B70095019F
:1003B00075108100C0050C0901A101850419012AED
:1003C000A002150126A002950175108100C005014B
:1003D0000906A1018506050719E029E71500250191
:1003E0009508750181020507190029EF15002501FF
:1003F00095F075018102050819012905950575011A
:100400009102950175039101C005010906A101053D
:100410000719E029E7150025019508750181029566
:1004200001750881010507190029FF150026FF0045
:1004300095067508810005081901290595057501BE
:100440009102950175039101C00011241FBECFEFE9
:10045000DAE0DEBFCDBF11E0A0E0B1E0ECE1F3E512
:1004600002C005900D92AC3DB107D9F723E0ACED89
:10047000B1E001C01D92A531B207E1F70E948911D8
:100480000C9438290C940000811108C08FE095E08D
:10049000611102C08DE095E00E94E40280E00895C1
:1004A000862B59F4453048F4E42FF0E0EE0FFF1F9F
:1004B000E455FF4F85919491089581E090E008956F
:1004C0000E94500208959C013A9521153F4150F534
:1004D000FC01EE27F170BC0166277270AC01442765
:1004E00054709C012227387094FF0EC080E1EF2BDE
:1004F00009F480E0672B09F08062452B09F08064E5
:10050000232B89F08068089581E0EF2B09F480E0C7
:10051000672B09F08260452B09F08460232B19F0CA
:100520008860089580E00895CF93DF93EB010E94E7
:100530006302FE010995DF91CF910895CF93DF9378
:10054000EC01805E9109089720F060E377E0209746
:1005500011F462EF74E0CE010E9494028C2F0E948D
:100560005104DF91CF910895CF93DF93EC010E9466
:100570009E04CE01805E9109089720F067E377E042
:10058000209711F469EF74E0CE010E949402DF918C
:10059000CF9108950F931F93CF93DF938C01EB01BD
:1005A0000E949E02209741F4C8010E94B402DF918C
:1005B000CF911F910F9108958FE99FE00197F1F777
:1005C00000C000002197EECF70E060E08933910514
:1005D00011F460E570E00E94CA02089581E0089578
:1005E0000E94EE02089581E008950E94EE020895AF
:1005F0000E94F502089508950E94FB020895A6E066
:10060000B0E0E5E0F3E00C94E42749835A839E834D
:100610003091E30189819A8131111AC03E813323DF
:1006200099F0222389F00E949A08182F682F898157
:100630009A810E947F0869817A81812F0E947D0FB3
:100640002696E3E00C9400280E948C08182FF3CF24
:100650000E949A0869817A81F1CFFC01262F40819E
:10066000518162817381848195810E94FF02089586
:10067000CF93DF93EC0161E00E942D03BE010E9445
:10068000F002DF91CF910895CF93DF93EC0160E00A
:100690000E942D03BE010E94FC02DF91CF910895BC
:1006A00008950E9454070E9450032FEF84E39CE0BA
:1006B000215080409040E1F700C0000008950E9462
:1006C00051030E948A2008950E9451030E949B209A
:1006D00008950F931F93CF93DF938C0161E00E94E5
:1006E0002D03EC01B8010E94F802811106C080E0E0
:1006F000DF91CF911F910F910895B801CE010E9413
:10070000061E8823A1F3B801CE010E94071C88238E
:1007100071F3B801CE010E94781D882341F3B8011E
:10072000CE010E94691B882311F3F801858188237B
:1007300061F0C330FCE7DF07E9F058F4C115ECE7DE
:10074000DE07A9F0C130DC47B9F0C8010E94F3020E
:10075000CFCFCB358CE7D807A9F0CC35ECE7DE0757
:1007600071F0CA35DC4789F70E94D00CEECF0E94A9
:100770005F03BDCF0E94D80C0E946403B8CF0E94D3
:10078000C60CE3CF0E94D40CE0CF0E94C11F0E9490
:10079000EC0308950E94F0030E94C61F0895089577
:1007A00081E008950895CF93DF93D82F0E94D0035E
:1007B000C82F882319F08D2F0E94D2038C2FDF9130
:1007C000CF9108950895CF93C82F0E94CF038C2F07
:1007D0000E94D303CF91089580E00E94E30308951F
:1007E0000E94541E0E94E3030895CF930E94541E5A
:1007F000C82F8091DE018C1779F0C093DE010E9432
:100800004B206093DF017093E0018093E1019093AE
:10081000E2018C2F0E94E303CF910895ADE0B0E098
:10082000E4E1F4E00C94E527488759876A877B87E1
:100830008C879D8791110E94FE0B1F8286E0FE012E
:100840003896DE01119601900D928A95E1F78D811F
:1008500081110DC029813A814B815C816D817E813E
:100860008F810E94310B2D96E2E00C940128CE017D
:1008700001960E9438038111EDCFF5CFFC01248150
:10088000213021F4808191810E94CC080895662353
:1008900029F00E940D120E94E01208950E94671232
:1008A000FACFCF93C82F8823B9F08CEF8C0F813A01
:1008B000A8F46C2F80910401909105010E94E71E1D
:1008C000882329F08C2F0E94BE0B0E94370C8C2F9E
:1008D0000E94B60B0E94370CCF91089580E28C0FD6
:1008E000883048F4C77081E001C0880FCA95EAF7E4
:1008F0000E94E10BEFCFEBE5EC0FE33040F4F0E0CA
:10090000E05AFE4F808190E00E94891EE5CFE8E525
:10091000EC0FEB3150F4F0E0EE0FFF1FE65DFE4F01
:10092000808191810E94AE1ED7CF83E38C0F8331EB
:1009300098F661E08C2F0E944704CECF882381F186
:100940009CEF980F913A28F40E94BE0B0E94370C3E
:10095000089590E2980F983050F4877091E001C0AC
:10096000990F8A95EAF7892F0E94E70BEFCF9BE555
:10097000980F933028F490E080E00E94891E08953B
:1009800098E5980F9B3128F490E080E00E94AE1E1D
:10099000089593E3980F933118F460E00E944704A0
:1009A00008951F93CF93DF93182FEB010E945104FA
:1009B000209739F4812F0E949E04DF91CF911F91DF
:1009C00008958FE99FE00197F1F700C0000021979B
:1009D000EFCF70E060E0893311F460E570E00E94D1
:1009E000D1040895882321F00E94E10B0E94370C66
:1009F0000895882321F00E94E70B0E94370C089588
:100A0000B0E0A0E0E6E0F5E00C94DE276C01D62F24
:100A1000C72FFC011581068102950F700E94D70B2C
:100A2000E82E8823E9F0E12E1123D1F08C2F807F6E
:100A3000803451F080E28D0F8830F8F0011104C04D
:100A40008C2F807E8032C9F08091EA0282FF15C02F
:100A500082E00E949A0C0E94D70B91E0E82EE926D2
:100A6000BC2EB2949FE0B922FBE0FB15B8F1EB2D50
:100A7000F0E0E65CF64D0C949E27E12CF1CF0C2FB4
:100A80000F70C07F11F00295007F112399F00023B1
:100A900059F080E28D0F883010F0D11107C0802FFF
:100AA0000E94E10B0E94370C8D2F5AC0802F0E94AC
:100AB000F10BF8CF8D2F0E949E04002379F080E285
:100AC0008D0F883010F0D11104C0802F0E94E70BE9
:100AD00003C0802F0E94F70B0E94370CEB2DE850CB
:100AE000FF0B349720F40E94541E0E94E303EE2073
:100AF00089F00E94D30B80FD0DC0F60115820E9483
:100B0000CD0B0E94DD07C6010E940D070E94CD0B90
:100B10000E94ED07CDB7DEB7E9E00C94FA272C2F41
:100B20002F70F22EC07FC03219F0F29480EFF822BD
:100B3000DD2341F0D130D1F1112309F444C0002369
:100B4000F1F0B2CF8091EA0282FD15C0112359F075
:100B5000FF2029F08F2D0E94E10B0E94370C80E0CE
:100B60000E945104BBCF80E00E949E04FF2009F444
:100B7000B5CF8F2DABCF112369F0011104C08F2D9C
:100B80000E94F204ABCF013009F0A8CF8F2D0E9454
:100B9000150CA4CF0111A2CF8F2D0E94F9048F2D27
:100BA0000E94210C8F2D0E94050C98CF112321F05B
:100BB000063008F093CFE3CF053008F08FCF8F2DAC
:100BC0000E94F9048BCF0023D1F3D93349F43FEFCE
:100BD00087EE93E0315080409040E1F700C0000084
:100BE0008D2F0E949E047ACF8C2F869586958370D8
:100BF00069F0813009F072CF8D2F9C2F9370111105
:100C000002C080E090E00E94AE1E68CF8D2F9C2F26
:100C10009370111102C080E090E00E94891E5ECFA7
:100C2000612F8D2F0E94470459CF8C2F8370A1F51F
:100C3000111154CF4D2F429546954770440F440FE4
:100C40002D2F2F7030E0042E02C0220F331F0A9484
:100C5000E2F790E080E0D4FF09C08FE090E002C0AE
:100C6000880F991F4A95E2F780959095C695C6958D
:100C7000C370822B932BC23049F058F4C13019F065
:100C80000E94AD072BCF0E94A40728CF0E94B60771
:100C900025CF0E94A10722CF8695112311F08C2F1A
:100CA0008170882309F41ACF4D2F429546954770DD
:100CB000440F440F2D2F2F7030E0042E02C0220F5E
:100CC000331F0A94E2F790E080E0D4FF09C08FE080
:100CD00090E002C0880F991F4A95E2F780959095A1
:100CE000C695C695C370822B932BC23049F058F439
:100CF000C13019F00E941808F1CE0E940F08EECE04
:100D00000E942108EBCE0E94C507E8CECF701123C8
:100D100029F08C2F0E94DD078D2F32CF8D2F0E945E
:100D2000F9048C2F0E94ED07D9CED23F41F160F437
:100D3000D03FB9F0D13F81F0112309F446C0011131
:100D4000B3CE8C2F8F711FC0D33F01F1D43FA1F7D9
:100D50008091EA0282FD24C08C2F8F71112311F340
:100D600012C0112341F0053008F0B8CE8C2F8F71DE
:100D70000E94FF07B3CE063008F0B0CEF7CF8C2F1D
:100D80008F711111CFCF0E94DD07A8CE112329F05A
:100D90008C2F8F710E94D107A1CE0E94CC079ECECE
:100DA000112349F0CF718C2F0E94DD0763E08C2F57
:100DB0000E947C0C93CE81E00E949A0C023008F4D1
:100DC0008DCE82E00E949A0C89CE002359F0D9334F
:100DD00009F006CFEFEFF7EE23E0E150F0402040BE
:100DE000E1F7FCCE8C2F8F719DCF0F931F93CF9384
:100DF000DF93EC01688179818D810E94D7088C0195
:100E00000E942A080E94A007B801CE010E94000596
:100E1000DF91CF911F910F910895CF93DF93EC0154
:100E20008C81882399F0CE010E946903811111C041
:100E30000E94D70B882351F08D81882339F080914F
:100E4000EA0282FF03C082E00E949A0CDF91CF91F8
:100E50000895CE010E94F506CE010E944403F6CF0C
:100E6000882321F00E94F10B0E94370C08958823FB
:100E700021F00E94F70B0E94370C089590E080E06B
:100E80000E94891E90E080E00E94AE1E0E94FE0B30
:100E90000E94370C0E94FC120E94E01208950E94EA
:100EA000C60B0E943E0708950E94EE0B0E944F075A
:100EB000089592959F70963091F058F4925F9F70CC
:100EC000923058F4803F19F030F4883E30F481E0DD
:100ED00008959A5FF4CF843FD1F380E00895883E6F
:100EE000B0F3813FD1F7F3CFFC012481222339F005
:100EF000808191810E94CC080E945907089580E06A
:100F00000895A6E0B0E0E7E8F7E00C94E527269620
:100F1000E2E00C940128A7E0B0E0E1E9F7E00C94EE
:100F2000E5272796E2E00C94012808950E94950792
:100F300008950E9496079093EB018093EA0108952B
:100F400008950E94990708952091EA013091EB01DC
:100F5000822B932B0E94990708952091EA013091EA
:100F6000EB01822393230E94990708952091EA01BF
:100F70003091EB01822793270E94990708950E94E0
:100F8000950708950E94BF0708950E94C207909395
:100F9000E9018093E801089590E080E00E94C50790
:100FA000089521E030E0A90102C0440F551F8A9541
:100FB000E2F7CA010E94C507089521E030E002C0AF
:100FC000220F331F8A95E2F78091E8019091E901A1
:100FD000822B932B0E94C507089521E030E002C0C8
:100FE000220F331F8A95E2F7209530958091E80112
:100FF0009091E901822393230E94C507089521E07F
:1010000030E002C0220F331F8A95E2F78091E80199
:101010009091E901822793270E94C50708952091A6
:10102000E8013091E901822B932B0E94C5070895B6
:101030002091E8013091E901822393230E94C507A2
:1010400008952091E8013091E901822793270E94B9
:10105000C50708950895262F277091E001C0990FC4
:101060002A95EAF723E0769567952A95E1F7660FCA
:10107000771F660F771FFA01E60FF71F50E040E079
:10108000682F70E08191DF0111979B01042E02C04F
:10109000369527950A94E2F7217021952827292370
:1010A00028272C934F5F5F4F4430510559F708951F
:1010B000A82FA77023E0969587952A95E1F7880FCA
:1010C000991F880F991FFB01E80FF91F50E040E0BE
:1010D00080E0219130E00A2E02C0369527950A94CF
:1010E000E2F721703327042E01C0220F0A94EAF799
:1010F000822B4F5F5F4F4430510559F70895262FDB
:10110000911109C0853038F4682F70E044EE51E049
:10111000822F0E942B08089591110AC0853030F467
:1011200064EE71E090E00E945808982F892F08958E
:1011300090E0FCCFB0E0A0E0E0EAF8E00C94DE271D
:101140007C010091E8011091E9018091EA01909100
:10115000EB01082B192BCFE0D0E0CC24C394D12C89
:10116000BC2EC6010C2E02C0880F991F0A94E2F70C
:1011700080239123892B49F4219790F7B12C8B2D53
:10118000CDB7DEB7E9E00C94FA27B7018C2F0E94A7
:10119000890F019789F3F3CFCF93DF93EC010E947E
:1011A0009A08BE010E94890FDF91CF9108951F9385
:1011B000CF93DF93EB019091E301992339F0CB01B9
:1011C0000E94CC08DF91CF911F910895882369F088
:1011D000CB010E949A08182F682FCE010E947F0829
:1011E000BE01812F0E94890FEDCFCB010E948C0898
:1011F000182FF6CF1F93CF93DF93C091EC0117E028
:101200008091ED018C1304C0DF91CF911F9108955F
:10121000D0E01C9FF0011D9FF00D1124E251FE4F04
:1012200020813181428153816481758186810E9450
:101230008B072196C770E4CF2091260230912702B8
:10124000409128025091290260912A0270912B024C
:1012500080912C020E948B070895CF93DF93809199
:101260002C02807F09F04DC080912B02882309F465
:1012700048C0E091EC015091ED01C0912702D0915E
:101280002602609128027091290247E05E17C9F199
:101290008E2F90E0E49FF0011124E251FE4F248153
:1012A000222391F1489FF001499FF00D1124DF01A5
:1012B000A251BE4F11962C9111972C1325C02C9141
:1012C0002D1322C015962C91159721111DC0129631
:1012D0002D913C91261B370B283C3105A8F48091B9
:1012E0002C028F70806180932C02EC50FE4F808125
:1012F0008F708061808386E292E00E940D070E94D9
:10130000FA08DF91CF910895FC013196E770BECFC6
:10131000482F2091EC019091ED0157E0291302C074
:1013200080E0089530E0529FF001539FF00D1124AA
:10133000E251FE4F8181681306C08081481303C0CB
:1013400085818111EECF2F5F3F4F2770E7CFA4E15A
:10135000B0E0EDEAF9E00C94DB278C0186E0F801BF
:10136000DE011F9601900D928A95E1F7F8018481C4
:10137000E58096E2A92E92E0B92E90912A02911171
:101380001FC08823D1F0EE20A9F0C8010E94740785
:10139000F82E882379F087E0F801D50101900D92AD
:1013A0008A95E1F7C5010E943E040E942D090E9422
:1013B0001C095FC0C8010E940D07FF24F39459C0A7
:1013C000C080D18082809380F0902B0220912802EF
:1013D00030912902A401421B530BFF2009F4F9C0EC
:1013E000483C510508F0A7C0882309F442C09091F9
:1013F000270280912C02282F207F09F05CC09D11CC
:1014000016C090912602C91212C0E1104EC08F7012
:10141000806180932C020E941C0986E292E00E9467
:101420000D0780912C02F8018683F12C22C0E11077
:101430003CC06D2D8C2D0E9488096D2D8C2D0E9435
:101440008809E82E8111F1CFCF86D88A8F859889B7
:101450000E94CC08292F22952F70243078F49F7099
:101460002230A8F09923B9F0F8019681907F99F481
:10147000FE2C8F2D6496ECE00C94F7272A5F2F70DA
:10148000223068F0C8010E940D07EF2CF1CF99239C
:1014900011F0882369F3805E883050F3F3CF803FEA
:1014A00038F3815F833070F7E3CF80912C02816045
:1014B00080932C02BACF9D1113C090912602C912BD
:1014C0000FC0E1100DC08683C8010E940D0787E0A0
:1014D000F801A6E2B2E001900D928A95E1F767CF9C
:1014E000C8010E947407882309F464CFEE2009F430
:1014F00061CF80912C02803288F0209126023091B9
:101500002702398728879B868A8690912A029C87A2
:101510001D868E87CE0108960E940D0787E0F80190
:10152000A6E2B2E001900D928A95E1F70E942D09A2
:101530000E941C0942CF90912C02292F207FA1F4F8
:10154000682D9A8A898AA6017A899E2D0E94810730
:1015500086E292E00E940D0787E0F50111928A95DC
:10156000E9F70E941C0961CF882309F482CF80919A
:1015700027028D1110C080912602C8120CC0E11004
:101580000AC09683C8010E940D0787E0F5011192F9
:101590008A95E9F76ECFC8010E947407882309F481
:1015A00009CFEE2009F406CF80912C02803208F496
:1015B000B5CF20912602309127023A8329839C825D
:1015C0008B8290912A029D831E828F83CE01019689
:1015D000A3CF483C5105B8F5882309F4EECEFE2C84
:1015E000EE2009F4E7CE809127028D111EC0809174
:1015F0002602C8121AC080912C0280FD0DC0982FBF
:10160000907F51F08683903F09F45ECF982F907FB2
:10161000905F8F70892B57CF87E0F801A6E2B2E088
:1016200001900D928A95E1F724CFC8010E947407BA
:10163000811174CF80912C02816080932C02C801AB
:101640000E940D0716CF682D9A8A898AA6017A8989
:101650009E2D0E94810787E0F50111928A95E9F796
:10166000A6CEAEE0B0E0E7E3FBE00C94E4272887E9
:1016700039874A875B876C877D878E87CE0108967E
:101680000E94A7098823B1F06C85662341F0288564
:1016900039854A855B857D858E850E948B0717E09D
:1016A0008091EC019091ED0189133DC02E96E3E00D
:1016B0000C94002887E0FE013896DE011196019017
:1016C0000D928A95E1F78C85882349F32091ED01ED
:1016D00030E0C9010196877099274091EC014817C5
:1016E000190699F097E0929FD001939FB00D1124B5
:1016F000A251BE4FFE01319601900D929A95E1F7ED
:101700008093ED010E94FA08CACF0E9454071092FC
:10171000ED011092EC0187E0E6E2F2E0DF011D92BC
:101720008A95E9F7BCCF819FC001112482519E4F59
:101730000E94A709882309F4B9CFE091EC011E9F0C
:10174000F0011124E251FE4F208131814281538109
:101750006481758186810E948B078091EC0190E005
:101760000196877099278093EC019ACF682F80911A
:101770000401909105010E94671F0895682F8091D0
:101780000401909105010E94751F08958091040144
:10179000909105010E94831F089580914D028695C6
:1017A00086958695089580914D0287700895909151
:1017B0004D02977081E009F480E0089580917102F4
:1017C000089590917102892B8093710208958095FC
:1017D0009091710298239093710208951092710272
:1017E000089590917002892B8093700208958095DE
:1017F0009091700298239093700208951092700255
:10180000089508950E94010C089590914E02292F89
:10181000282331F08095892380934E020E94020C88
:10182000089508950E94110C089590914F02292F58
:101830002823281729F0982B90934F020E94120C0E
:10184000089590914F02292F282331F08095892304
:1018500080934F020E94120C089580914F028823BA
:1018600029F010924F0280E00E94120C0895CF934D
:10187000DF93E0910401F091050180917102808372
:10188000E0910401F0910501808190917002892B13
:10189000808390914F02992381F0E0910401F091AF
:1018A00005018081892B808380910401909105013D
:1018B0000E94D31E81110E942D0CC0910401D09171
:1018C000050140E250E06DE272E0CE010E94AB28DB
:1018D000892B59F080E2FE01ADE2B2E001900D9259
:1018E0008A95E1F7CE010E94611EDF91CF910895A4
:1018F00008950E94780C08959091EA0292FF11C019
:1019000098E0899F90011124622B60934D020E9400
:10191000DD0780914D028695869586950E94790C0B
:1019200008950E94DD07089510924D0280E00E9404
:10193000790C089590914D028095892380934D02F2
:10194000282F277069F4891759F09091EA0292FFC5
:1019500007C08695869586950E94ED070E94940C97
:1019600008959091EA0292FB222720F9281769F046
:1019700080FB92F99093EA028091E9029091EA0249
:101980000E94F90C82E00E949A0C08958091EA026C
:1019900082FB882780F991E089270E94B10C089585
:1019A00081E00E94B10C089580E00E94B10C08957E
:1019B0006FEF7FEF90E080E00E940329089590E0B0
:1019C00080E00E94CF2821E0863E9E4F09F020E073
:1019D000822F089582E090E00E94C128089583E05C
:1019E00090E00E94C128089584E090E00E94CF28F2
:1019F0000895BC0184E090E00E9403290895AB01A2
:101A0000BC018FE090E00E94F7280895AB01BC0173
:101A100083E190E00E94F728089560E070E0CB0138
:101A20000E94060D089560E070E0CB010E94FF0C5B
:101A30000E940D0D0895A8E0B0E0E1E2FDE00C94F5
:101A4000E52766EE7EEF90E080E00E94032960E0EB
:101A500082E090E00E94E52860E083E090E00E9450
:101A6000E5281092EB011092EA0160E074E184E055
:101A700090E00E94032960E086E090E00E94E52863
:101A80006FEF87E090E00E94E52840E050E0BA0167
:101A900088E090E00E94F72860E084E290E00E94F5
:101AA000E52860E087E190E00E94E52860E08CE0B6
:101AB00090E00E94E52860E08DE090E00E94E5283B
:101AC00019821A821B821C821D821E821F82188626
:101AD00048E050E068E170E0CE0101960E94D52810
:101AE00040E050E0BA0180E290E00E94F7280E94B6
:101AF000130D2896E2E00C9401280E941B0D089516
:101B0000682F8EE090E00E94E5280895A6E0B0E0FE
:101B1000ECE8FDE00C94E3270E943F208C018091CB
:101B20007202909173028017910781F019821A82D4
:101B30000E943F20682F49815A81792F80E090E0F0
:101B40000E940E0410937302009372022696E4E042
:101B50000C94FF270E944B2060937D0270937E02BD
:101B600080937F02909380026093790270937A024F
:101B700080937B0290937C0208950E944B20609397
:101B80007D0270937E0280937F0290938002609327
:101B9000750270937602809377029093780208958D
:101BA000089508950E94D10D089508950E94D50DBD
:101BB000089581E0089583E790E10E944A1E0E9403
:101BC000D00D0E94D20D08950E94D90D08950E9453
:101BD000E40D0895089508950E94EA0D0E94EB0D0A
:101BE00008950E9492100E94E20308950E943620F8
:101BF0000E94FE1C0E940C110E94F10D0E946D1AA1
:101C00000E94D60D0895A6E0B0E0E9E0FEE00C9455
:101C1000DF270E94D90D811111C00E94860D0E94FC
:101C2000B01A0E941B1D81110E94BD0D0E941E133F
:101C30000E94F5032696E8E00C94FB270E941811F9
:101C40001091740280E00E94B810181731F380914F
:101C5000810281FD0E94BE100E94E70DD82E80E017
:101C60000E94B810182F80917402181729F1E12EE4
:101C7000E82600E0FF24F394CC24C3948E2D8F211A
:101C8000A9F0DD2099F009831A820E943F209C83ED
:101C90008B83CD8291E0812F8F2109F490E04981DF
:101CA0005A816B817C818D810E940E040F5FFF0C35
:101CB000053021F7109374020E94AA0DB0CF1F9334
:101CC000CF93DF930E948E0FEC01C11580E5D807FA
:101CD000F0F5C11580E4D80708F09CC0C03ED105DE
:101CE00020F5CD3CD10508F082C0C83AD10578F482
:101CF000C53AD10508F073C0C130D10519F120975C
:101D000009F1C430D105F0F4D0E0C0E01BC0C33C01
:101D1000D105D0F7C85AD0E0CC0FDD1FCD59DE4F2A
:101D20000990D881C02DD4640DC0C11580E2D807B8
:101D300008F0D1C0C11581E0D80708F05AC0C83EEC
:101D4000D10510F7CE01DF91CF911F910895C036D4
:101D500082E5D80718F5C03482E5D80708F06BC0D3
:101D6000C03282E5D80708F05FC0C11582E5D80708
:101D700008F497C02C2F2695269580E2289F900185
:101D800011248C2F8370C1E0D0E002C0CC0FDD1F86
:101D90008A95E2F7C22BD32BDD68D4CFC03A82E517
:101DA000D80760F4C03882E5D80708F459C0CF716D
:101DB000D0E0DC2FCC27C46FD06AC4CFC03C82E512
:101DC000D80708F462C0C03E82E5D80708F09CCF6F
:101DD000DC2FCC27CC27DF71C06FD06AB3CFC55AB8
:101DE000D0E0C756DE4FC881D0E0D064ABCFD0651D
:101DF000A9CF8D2F0E943010182FCE0199270E9455
:101E00008E0FC12FD0E0DC2FCC27CC27DF71C82B61
:101E1000D92B98CFCE0199270E948E0FCC27DF7047
:101E2000C82BD92BD06A8ECFCF71D0E0DC2FCC2736
:101E3000C16FD06A87CF2C2F26952695277080E218
:101E4000289F900111248C2F8370C1E0D0E002C044
:101E5000CC0FDD1F8A95E2F7C22BD32BDC6872CF43
:101E60002C2F26952695277080E2289F900111241B
:101E70008C2F8370C1E0D0E002C0CC0FDD1F8A95AB
:101E8000E2F7C22BD32BDA685DCF8C2F8F710E94C3
:101E90003010C82FD0E0DC2FCC27CC27DF71D062E8
:101EA00051CF8C2F8F710E94301055E0D695C79579
:101EB0005A95E1F7CF70D0E0DC2FCC27282F30E007
:101EC00084FF05C044E0220F331F4A95E1F7C22B7F
:101ED000D32BD06937CF8D2F8F710E943010182FE0
:101EE000CE0199270E948E0FC12FD0E0DC2FCC2786
:101EF000CC27DF71C82BD92BD2CF462F711106C04A
:101F0000653020F460E00E946002089590E080E077
:101F100008950E947D0F0E945F0E089582389105FA
:101F2000B9F1B0F48133910509F47DC048F48932E8
:101F3000910509F46DC08A32910509F47BC00895BA
:101F40008533910509F45FC08933910509F108953E
:101F5000833E9105D9F138F4803E910529F1823E06
:101F6000910579F10895863E9105D9F1873E910555
:101F700009F43EC0843E910541F52091EA0221FF1B
:101F800024C08091E90284FD19C087EE90E0089595
:101F90002091E902237009F05AC02091EA0223FF40
:101FA00014C089E290E008952091E90220FD38C034
:101FB0003091EA0230FF09C024FF43C090E080E086
:101FC00008952091E90222FDF7CF08952091E902BA
:101FD00022FD3AC03091EA0230FD39C024FFF5CF2E
:101FE000EDCF2091E90223FFF0CF24FDE7CFCDCF45
:101FF0002091E90223FD2EC03091EA0231FFEECF9D
:1020000084EE90E008952091E90225FFDECFC9CF4C
:102010002091E90225FD21C02091EA0223FFD5CFBE
:1020200089E390E0D2CF2091E90226FFCECF8AE269
:1020300090E008952091E90226FFC7CF81E390E068
:10204000089583EE90E0089582EE90E0089580EE8A
:1020500090E0089586EE90E0089585E390E008957D
:102060009091E90292FF06C0282F28712830F9F4D8
:10207000877F846093FF06C0282F28712831F1F4F0
:10208000877E84612091EA0220FF06C0382F3871D4
:102090003830D9F4877F816021FF06C0282F28714E
:1020A0002831D1F4877E816194FD877E0895282FA1
:1020B00024712430F9F68B7F8860DCCF282F2471BF
:1020C000243101F78B7E8861DDCF382F31713130BB
:1020D00019F78E7F8860E0CF282F2171213121F7F9
:1020E0008E7E8861E1CF80E008950E94D80C08952B
:1020F0000E9418112FEF86E791E021508040904018
:10210000E1F700C000000E94181180E00E94B810A2
:1021100080FF04C00E9475100E948A2008950E94CA
:10212000781008950E94DF0C811102C00E947D0D7D
:102130000E94EA0C809381020E94F40C9093EA02C0
:102140008093E9020E948F100E94EF0C90E00E94A1
:10215000A1078091E8019091E9010E94C2070895CA
:1021600008950E94B010089508950E94B410089533
:10217000E82FF0E0E451FD4F808108950895CF935A
:10218000ACE9B1E041EA51E061E070E08D918F3F50
:1021900091F0E82FE295EF70F0E0C1A18F709B0104
:1021A00001C0220F8A95EAF7922F90959C2391A364
:1021B00082A1822B82A34A175B0741F7CF91089532
:1021C000CF93DF93AC01A62FB0E085E0689FF001CC
:1021D0001124E456FE4F75E081E060E091919F3F4D
:1021E000C9F0C92FC295CF70D0E028A130E09F7010
:1021F00002C0359527959A95E2F720FD0BC0282F50
:10220000622B880F715051F7A40FB51F6C93DF91AB
:10221000CF91089520E0F4CF0E94BF101092EC02FD
:102220001092EB0281E00E943D110E94B1100895CE
:10223000A1E0B0E0EEE1F1E10C94E427198260E066
:10224000CE0101960E94E0109091EB02898121E07D
:10225000981301C020E098138093EB0241E06CEEEC
:1022600072E08BEE92E00E943E11182F0E94B51092
:10227000812F2196E3E00C9400280895CF92DF92FD
:10228000EF92FF920F931F93CF936C017B01042F6A
:10229000222349F081E0809384020E943F209093A2
:1022A000830280938202C0918402C1110AC0C0E0FF
:1022B0008C2FCF911F910F91FF90EF90DF90CF90D7
:1022C000089580918202909183020E945720059781
:1022D00070F310E0A801B601C7010E94AB28892B5A
:1022E00041F0A801B601C7010E94B82810928402EB
:1022F000DFCFC0E0FBCF0E9410220E94F60D0E94AB
:102300001D2208950E9422220E94030E0E943C2258
:1023100008950E94D81F0E94F6210E94DB0D0E94A2
:102320007B110E9482110E94EC0DFBCF80918B02E9
:1023300080FF0DC060910B0170E0660F771F603861
:10234000710570F56115710569F1862F089581FF9A
:1023500007C060910B0184E0689FB0011124EFCFAA
:1023600060910B0182FD0AC080918A028823A9F046
:1023700020910A0160910B01821710F088E0ECCFE8
:10238000869FC001112433E0880F991F3A95E1F729
:10239000622F70E00E946827D2CF68E070E0D5CF4E
:1023A0008FE7089581E0089580918B0280FF0CC033
:1023B0006091070170E07595679575956795611552
:1023C000710549F1862F089581FF06C060910701CC
:1023D00070E075956795F3CF6091070182FD0BC0A2
:1023E000909189029923A1F06091060180910701E3
:1023F000961738F0682F70E06038710500F38FE7AA
:102400000895899FC001112470E00E946827F4CFCD
:1024100061E070E0D7CF81E008958D3C31F40E94F7
:102420009611819580938F0208958E3C19F40E9435
:102430009611F8CF8F3C31F40E94961181958093CC
:102440008E020895803D19F40E949611F8CF893DBF
:1024500029F40E94D4118093900208958A3D21F4BA
:102460000E94D4118195F7CF8B3D31F40E94D41195
:1024700081958093910208958C3D19F40E94D411A6
:10248000F8CF9FE2980F983070F4815D990B21E0AE
:1024900030E001C0220F8A95EAF780918D02822BED
:1024A00080938D0208958D3D31F480918B0281607F
:1024B00080938B0208958E3D21F480918B0282607F
:1024C000F7CF8F3DB9F780918B028460F1CF4091B7
:1024D0008E028D3C59F480918F0287FF0DC01092BF
:1024E0008F0241110BC010928A0208C08E3C81F409
:1024F00080918F0218169CF3442381F08091900202
:1025000090919102892B09F05AC010928902089586
:102510008F3C49F447FFF0CF10928E0280918F02DA
:102520008111ECCFE0CF803D19F41416ACF3E4CF69
:1025300090919002893D29F41916F4F610929002B8
:10254000DBCF8A3D19F497FFD7CFF8CF9091910256
:102550008B3D29F497FFD0CF10929102CDCF8C3DC7
:1025600019F41916CCF3C8CF9FE2980F983090F465
:10257000815D990B21E030E0B90102C0660F771F41
:102580008A95E2F7CB01809590918D028923809303
:102590008D02B2CF8D3D31F480918B028E7F80937E
:1025A0008B02AACF8E3D21F480918B028D7FF7CFD5
:1025B0008F3D09F0A1CF80918B028B7FF0CF0895E2
:1025C0000E943F209C0190918E0280918F02982B57
:1025D00021F030938802209387029091900280919D
:1025E0009102982B21F030938602209385028CE88B
:1025F00092E00E947B1E089586E0ECE8F2E0DF01A5
:102600001D928A95E9F710928A021092890210921F
:102610008B020895FC01828181110EC0838181119A
:102620000BC08481811108C091E08581811101C0B6
:1026300090E0892F8170089581E0FCCFA6E0B0E0A2
:10264000E4E2F3E10C94E42786E0ECE8F2E0DE015A
:10265000119601900D928A95E1F710928E021092D8
:102660008F0210929002109291028B819C81892B93
:1026700089F080918702909188020E945720AC01D6
:1026800090918A029923C9F180910C018417150653
:1026900008F440C08D819E81892B91F08091850244
:1026A000909186020E945720AC0190918902992353
:1026B00009F471C0809108018417150608F479C0E7
:1026C000BE016F5F7F4F8CE892E00E94951F8111E1
:1026D00005C08CE892E00E940A1381110E94E0126A
:1026E00086E0FE013196ACE8B2E001900D928A9549
:1026F000E1F72696E3E00C94002820910D018AE092
:10270000289F900111242417350720F69F5F90938E
:102710008A0202C09F3FD1F71B81112359F00E940A
:1027200096119FEF11160CF491E0899F802D1124D2
:1027300080938E021C81112359F00E9496119FEF05
:1027400011160CF491E0899F802D112480938F0243
:1027500030918E02332309F49DCF20918F022223E2
:1027600009F498CF45EB3403C0011124992359F0A3
:1027700090938E0245EB240390011124332339F00A
:1027800030938F0287CF81E080938E02F3CF81E078
:1027900080938F027FCF209109018AE0289F9001CA
:1027A00011242417350708F08BCF9F5F909389027F
:1027B00002C09F3FD1F71D81112359F00E94D4110F
:1027C0009FEF11160CF491E0899F802D11248093C6
:1027D00090021E81112359F00E94D4119FEF11160F
:1027E0000CF491E0899F802D112480939102309107
:1027F0009002332309F464CF20919102222309F43B
:102800005FCF45EB3403C0011124992359F0909315
:10281000900245EB240390011124332339F03093C7
:1028200091024ECF81E080939002F3CF81E08093BC
:10283000910246CFEF92FF920F931F93CF93DF93B6
:10284000EB01E82FD1110EC0442321F0F0E0E0535A
:10285000FE4FE4916E2F7E2F8E2FCDB7DEB7E6E0D0
:102860000C94FD270D2F10E0282F30E0442329F091
:1028700020533E4FF901249130E0F6E0CF9FC00194
:102880001124EFEFF0E0BF010E945427AB018C2F21
:1028900090E0880F991FA5E5A49FB001A59F700D3A
:1028A0001124861B970B982F990F980FBF01601B5F
:1028B000710B629FD001639FB00D729FB00D112408
:1028C0008B2F9D9FB0011124672F7727EF01C61B27
:1028D000D70BBE01629FE001639FD00D729FD00DA8
:1028E00011247F01E91AF108E09EB001E19E700D0C
:1028F000F09E700D1124672F7727E61BF70BE29FE0
:102900008001E39F100DF29F100D1124E12F722F13
:102910004230510599F048F44115510569F04130B4
:10292000510581F0EB2F8D2F07C04430510569F020
:1029300080F046305105B1F76E2F8FCFE22F7B2FFD
:10294000812FFACFE22F7D2FF7CFEB2F822F712F20
:10295000F3CF7B2F822FED2FEFCF41E00E941A148F
:10296000089508950E94AD140895CF93DF93762FB4
:10297000E901682F842F0E94B214798368838A83C7
:10298000DF91CF9108958091ED02982F9E7F29F4D9
:10299000817082608093ED0208958635E8F381703E
:1029A0008465F8CFB0E0A0E0E8EDF4E10C94DF2717
:1029B00088E090E00E94C9286B017C0184E290E0ED
:1029C0000E94C128282F30E040E050E060E070E035
:1029D00080E090E000E20E940C28B22FA32FF42F99
:1029E000E52FD62FC72F97018601BC29A12BFE29E1
:1029F0005E2F532B2B2F3A2F4F2F6D2F7C2FCDB7C0
:102A0000DEB7E8E00C94FB27B0E0A0E0EAE0F5E1F7
:102A10000C94DB2749015A016B017C010E94C3140D
:102A20008401A4016A2D7B2D88E090E00E94F728A4
:102A300094014A2D5B2DB601C70100E20E942728B0
:102A4000622F84E290E00E94E528CDB7DEB7ECE08B
:102A50000C94F727EDEEF2E083E0808311828FEF94
:102A6000828383831482758123E030E04FEF5FEF30
:102A700060E0868197810E94041508958091ED029F
:102A800080FF02C08695089580E008959091F1023C
:102A9000933018F49F5F9093F102882391F0209176
:102AA000ED023091EE024091EF025091F002609100
:102AB000F1027091F2028091F3029091F4020E946F
:102AC0000415089581E00E94461508959091F10241
:102AD000992319F091509093F102882391F020915D
:102AE000ED023091EE024091EF025091F0026091C0
:102AF000F1027091F2028091F3029091F4020E942F
:102B00000415089581E00E946615089570E00E9402
:102B1000DB1B0895609112018091ED0280FF0BC0D4
:102B20008091110123E0829FC00111248B509D4FA1
:102B30000E9486150895809113019091140123E05D
:102B4000829FF0011124EB50FD4F891748F7118245
:102B5000108212828F5F3396F8CF9091ED0290FF32
:102B60000EC0909113012091140133E0939FF00166
:102B70001124EB50FD4F921718F00E948A1508950A
:102B80008183608342839F5F3396F5CFA3E0B0E0FB
:102B9000ECECF5E10C94E5279091ED0290FF0AC072
:102BA0009E012F5F3F4F0E94B5144B8169818A813E
:102BB0000E94AD152396E2E00C940128CF93DF9399
:102BC000EC01EC81F0E0E553FF4F4491EDEEF2E0D3
:102BD000628181810E94C6158C818F5F8C83DF9119
:102BE000CF910895CF93DF93EC01EDEEF2E04381B6
:102BF00062818C810E94C6158C818F5F8C83DF91EE
:102C0000CF910895A3E0B0E0E8E0F6E10C94E3276B
:102C10008C018091920281110AC09E012F5F3F4F6B
:102C20004FEF6FEF0E94B5148A8180939202F801F2
:102C30006481613069F08091920240E0662361F026
:102C400040E0623011F44091920280E060E004C004
:102C50006091920240E080E00E94AD15F80184810D
:102C600090E0019663E070E00E94682784832396D9
:102C7000E4E00C94FF27A3E0B0E0E1E4F6E10C947B
:102C8000DE27082FD62EF42EC22E9091ED0290FF53
:102C90002EC0E92FE695AE2FB0E0AF55BE4F8C9118
:102CA0008093B5029E7F923031F59E012F5F3F4F9A
:102CB000802F0E94B5144B8169818A810E94AD15D5
:102CC0000093EE02D092EF02F092F002CC2079F065
:102CD0002091ED026091F1027091F202302F4D2DA2
:102CE0005F2D8091F3029091F4020E9404152396C7
:102CF000E9E00C94FA27823019F4F090F002E0CF6A
:102D0000863019F40091EE02DBCF8930D9F3893196
:102D1000B9F6E9516E2F6170B62EE695F0E0E553F5
:102D2000FE4F1491E12C60911501E61618F00E94F7
:102D30008A15C6CFE19EC001112470E00E9454277D
:102D4000802FB11014C0860F20911301622F6E0DD9
:102D50007727771F9B01220F331F260F371F2B501A
:102D60003D4F4F2D6D2D0E94B514E394DCCF861B93
:102D7000EBCFEDEEF2E09181282F4381628188E074
:102D8000890F0E943B16089581E00E94B9160895AC
:102D9000EDEEF2E09181282F4381628188EF890F67
:102DA0000E943B16089581E00E94C8160895EDEE3A
:102DB000F2E0628121E1620F08F46FEF282F438176
:102DC00081810E943B16089581E00E94D7160895E4
:102DD000EDEEF2E0628121E1621B08F460E0282F51
:102DE000438181810E943B16089581E00E94E8168C
:102DF0000895EDEEF2E0438121E1420F08F44FEF38
:102E0000282F628181810E943B16089581E00E94F3
:102E1000F9160895EDEEF2E0438121E1421B08F43A
:102E200040E0282F628181810E943B16089581E055
:102E30000E940A17089520E00E943B160895EF9221
:102E4000FF921F93CF93DF93EC0110E0EE24EA94FE
:102E5000F12C60911501161770F00E948A159A8165
:102E60008C8190FF27C08F5F8C83DF91CF911F9162
:102E7000FF90EF90089520911301422F410F5527A5
:102E8000551FCA019A01220F331F280F391F2B50DB
:102E90003D4F70E0C7010E946827962F8C814091BA
:102EA000F0026091EF02199F800D11240E94B51469
:102EB0001F5FCFCF8150D8CFB0E0A0E0E2E6F7E1CE
:102EC0000C94DD27FC0182810FEF80FF01E010E010
:102ED00045E0A42E80911501181798F00E948A15DC
:102EE00080919402013009F04FC0811102C080919D
:102EF0001501815080939402CDB7DEB7EAE00C94BF
:102F0000F927C0911301C12ED12CCC0DDD2DD11D7F
:102F1000CE01880F991FC80FD91FCB50DD4F1982E2
:102F200018821A8234E0E32EF12CB12C80919402A5
:102F30008B0D86301CF16A2D0E944627892F082EA2
:102F4000000C990BC816D90691F48091F0028E9D61
:102F5000A0018F9D500D1124559547955595479586
:102F60009E016091EF028091EE020E94B514B00EB6
:102F7000F1E0EF1AF108D1F61F5FACCF87FFDFCF8A
:102F800090911501890FDBCF90E0019660911501BA
:102F900070E00E946827AECF0F931F93CF93DF930B
:102FA000809113019091140123E0829FF00111247C
:102FB000EB50FD4F891740F1C0E0D3E0609115015F
:102FC000C61740F10E948A1520910F01809193024B
:102FD000820F8093930290911001920F90931001B1
:102FE000191654F4082E000C990B4091150141500C
:102FF000550B841795071CF0219520930F01DF9145
:10300000CF911F910F9108951182108212828F5FCC
:103010003396D0CF0C2F10E070E0C8010E946827D3
:1030200020911301820F482F50E020919302022E2D
:10303000000C330B02171307BCF020911001022E75
:10304000000C330B201731077CF08D9F9001112469
:103050002B503D4F4091F0026091EF028091EE02C3
:103060000E94B514CF5FAACFFA01EE0FFF1FE40F45
:10307000F51FEB50FD4F118210821282F3CFB0E0AA
:10308000A0E0E5E4F8E10C94DB27EC014C81042F8F
:1030900010E09801D8010E94AC279B01AC010E946E
:1030A000C2274B015C01E0E2F0E0E01BF10BA5E57B
:1030B000B0E0AC019B010E94C2276B017C019F0123
:1030C000DF010E94A4279B01AC010E94CD279B0138
:1030D000AC01280D391D4A1D5B1DC701B6010E94B8
:1030E0007C27F22E822F90E039E23F1520F143E059
:1030F000249F9001112435952795122F109500E0FB
:1031000085E5E82EEF1880911501081718F10E9447
:103110008A159C8181E0992319F0903219F48FEF80
:1031200080930E0180910E01890F8C83CDB7DEB79D
:10313000ECE00C94F72725E530E0B901681B790B2A
:103140009B01220F331F260F371F37FFD4CF2F5F6E
:103150003F4FD1CF8E2D01FD8F2D20911301622F76
:10316000600F7727771F9B01220F331F260F371F12
:103170002B503D4F412F6091EF020E94B5140F5F1D
:10318000C2CF0F931F93CF93DF93EC0110E000E0C9
:10319000909115019017110609F06CF40E948A15A0
:1031A0008C8190E00196817099278C83DF91CF917B
:1031B0001F910F91089520911301A801420F511DF5
:1031C0009A01220F331F240F351F2B503D4F4C8186
:1031D0006091EF028091EE0296959017110651F0E2
:1031E0004CF0442349F04091F0020E94B5140F5F67
:1031F0001F4FCECF4423B9F340E0F7CFB0E0A0E0BB
:10320000E4E0F9E10C94D727FC016280448081E07E
:103210008483EBECF0E07490EAE4F1E0E491C09197
:10322000F002C695C158D0E0CC0FDD1FCD2FDD27B1
:10323000812C75E0972EAA24AA94B12C55245A9477
:10324000E719EE2EF12C80911501881638F00E94B6
:103250008A15CDB7DEB7E0E10C94F327C82CD12C4A
:1032600082E0861568F09C9CF0019D9CF00D112475
:10327000EB56FD4F8091EE0280838091EF028183B7
:10328000411023C09C9CF0019D9CF00D1124EB5635
:10329000FD4F1382128220911301C601820F911DEE
:1032A0009C01220F331F280F391F2B503D4F9C9C30
:1032B000F0019D9CF00D1124EB56FD4F4281618180
:1032C00080810E94B5148394BECF9C9C80019D9CFC
:1032D000100D11240B561D4FF80183818823F1F046
:1032E00081508383859DC0011124648170E00E9418
:1032F0005427FB01FF27E553FF4F8491E82FE7197F
:10330000E59DC0011124B7010E9454278091F0026D
:10331000689FB0011124F8017283BDCF0E948E28EE
:10332000B5010E9468278C179D070CF0B4CFF2E01E
:10333000F61598F40E948E28B5010E946827F801BE
:1033400080830E948E282091EF022695622F70E0E4
:103350000E946827280FF80121839C9CF0019D9C06
:10336000F00D1124EB56FD4F12828091F002893C42
:1033700058F088EC9C9CF0019D9CF00D1124EB56BC
:10338000FD4F8483838387CF8431A0F784E1F2CF1C
:10339000EDEEF2E020812E7F208331814281538146
:1033A00064817581868197810E9404151092B6020E
:1033B0000E948A1508956091ED02669570E04BE0D9
:1033C00050E086E191E00E949E28892B19F481E06B
:1033D0008093B6020E943F209093AF028093AE028A
:1033E00008959091ED0290FF33C09170811131C02A
:1033F00092609093ED02662391F02091ED0230915E
:10340000EE024091EF025091F0026091F102709152
:10341000F2028091F3029091F4020E9404156091EF
:10342000ED02669570E04BE050E086E191E00E948D
:103430009E28892BA9F01092B60281E08093B102F8
:103440004091F0026091EF028091EE020E941B1702
:1034500008958B3210F09465CCCF880F982BC9CF8C
:103460000E94DB19EACF682F9091ED02969581E0DA
:10347000890F8B3208F081E00E94F119089581E0F4
:103480000E94331A0895682F9091ED0296958FEF60
:10349000890F09F48AE20E94F119089581E00E94DF
:1034A000431A089561E00E94F1190895EDEEF2E0EB
:1034B00080818160808386950E94521A0895809150
:1034C000ED0280FF03C00E94C81908950E94561A99
:1034D000089560E00E94F11908958091B40281116D
:1034E0003EC00E94DF0C811104C00E947D0D0E942D
:1034F0002A150E94D2142093ED023093EE024093DD
:10350000EF025093F0026093F1027093F202809305
:10351000F3029093F4022E7FA1F40E942A150E94D8
:10352000D2142093ED023093EE024093EF025093B9
:10353000F0026093F1027093F2028093F302909391
:10354000F4020E94C3141092B6028091ED0280FF33
:1035500003C086950E94691A81E08093B4020895A1
:103560000F931F93CF93DF938091B6028823B9F115
:103570008091B502E091ED02E695E81BE093B00280
:10358000823091F5F0E0E953FF4FE491CE2FD0E087
:103590000EED15E18091B102882361F01092B10225
:1035A0000E943F209093AF028093AE021092B3022C
:1035B0001092B2020E943F20E091AE02F091AF0261
:1035C0008E1B9F0B8F3F9F4750F4EC0FFD1FF09316
:1035D000AF02E093AE028EEA92E0F8010995DF9126
:1035E000CF911F910F910895863049F4F0E0EC538C
:1035F000FF4FE491CE2FD0E002EF15E1CBCF893021
:1036000051F4E695F0E0EF53FF4FE491CE2FD0E078
:103610000FE117E1BFCF8F3051F4E695F0E0E254AF
:10362000FF4FE491CE2FD0E00CE517E1B3CF853109
:1036300049F4F0E0E554FF4FE491CE2FD0E00CECDC
:1036400017E1A8CFC8E2D0E00FE318E1883109F410
:10365000A1CF833239F4E9EBF0E0C591D49102E0D7
:1036600016E198CFC4EFD1E001EC18E1843209F4FF
:1036700091CFC0EDD7E001EB14E1853209F08ACF9C
:103680008E2F63E00E943A27E92FF0E0EA54FF4FC3
:10369000E491CE2FD0E00EEF18E17CCFFA0181113A
:1036A00001C0FB0109950895CF93DF93C82FD62F52
:1036B0000E943E158C1748F00E943E158D1728F485
:1036C0000E943F1ADF91CF9108958C2F0E94521AC9
:1036D000F9CF1F93CF93DF93EC01FB0115811111FB
:1036E00010C00E94DE0B8272FE01E052F847E53105
:1036F000F10508F05EC0EA5BF64D0C949E270E942F
:103700005F1A812FDF91CF911F9108954EE45AE106
:103710006FE37AE10E944E1BF4CF4FE35AE16EE46F
:103720007AE1F8CF43ED56E164EC76E1F3CF44EC77
:1037300056E163ED76E1EECF45EF56E164EE76E1DA
:10374000E9CF44EE56E165EF76E1E4CF47E157E19A
:1037500066E077E1DFCF46E057E167E177E1DACF76
:1037600042E855E162E675E1D5CF42E655E162E80F
:1037700075E1D0CF81E00E94521AC3CF65E082E0AC
:103780000E94541BBECF68E086E0FACF6EE089E06D
:10379000F7CF64E18FE0F4CF67E185E1F1CF88E115
:1037A000EACF62E289E1ECCF83E2E5CF6AE285E22B
:1037B000E7CF11E0A6CF3F9A48B14F7758B1506894
:1037C000EFB7F8949B01220F331F260F371F280FE6
:1037D000391F2817390741F4EFBF8FE594E00197AF
:1037E000F1F700C000000895DC016D91CD0178E093
:1037F00058B9000000C067FF48B9660F000000C05C
:1038000000C000C048B900C07A9591F7E2CFCF93CD
:10381000DF93EC01FB018581882309F4D2C09E016E
:1038200030572332310508F0B2C00E94F40C909357
:10383000EA028093E902FE01E150F047E232F1052D
:1038400020F4E55AF64D0C949E278091E9028160A0
:103850008093E90293C08091EA0288608093EA0233
:103860008DC08091E9028260F3CF8091E90284608B
:10387000EFCF8091E9028860EBCF8091EA0281600E
:10388000EDCF8091EA028260E9CF8091E902806108
:10389000DFCF8091E9028062DBCF8091E902806412
:1038A000D7CF0E9454078091E9028068D1CF8091E0
:1038B000E9028C60CDCF8091EA028360CFCF809106
:1038C000E9028E7FC5CF8091EA02877FC7CF8091C2
:1038D000E9028D7FBDCF8091E9028B7FB9CF8091C6
:1038E000E902877FB5CF8091EA028E7FB7CF8091C2
:1038F000EA028D7FB3CF8091E9028F7EA9CF8091BC
:10390000E9028F7DA5CF8091E9028F7BA1CF0E9434
:1039100054078091E9028F779BCF8091E902837FE2
:1039200097CF8091EA028C7F99CF8091E90282FB48
:10393000992790F921E0922790FB82F990FB83F977
:1039400087CF8091EA02982F909591708E7F892B76
:1039500090FB81F983CF9091E902892F8F7B96FFAD
:10396000806476CF0E9454079091E902892F97FBDB
:1039700087F980586DCF81E00E94800D8091E90227
:103980009091EA020E94F90C0E94540780E0DF91B6
:10399000CF91089580E0F0CF9091E902892F8F7E3A
:1039A00094FF806155CF9091E902892F8E7F90FF1F
:1039B00081604ECF9091EA02892F877F93FF8860C4
:1039C0004DCF81E0E4CF8FE891E00197F1F700C09F
:1039D00000000895CF93DF93D62F0E944402C82F92
:1039E000882341F06AE070E089EAD11101C08AEAD7
:1039F0000E94D1048C2FDF91CF91089581E08093B4
:103A0000B8025098589A52985A9A0E94E31C2091F2
:103A1000B8024AEB52E0FA018E2F841B821708F09D
:103A2000089589B181704A9904C090E0892B8193EF
:103A3000F3CF92E0FBCFB0E0A0E0E1E2FDE10C9437
:103A4000DF27F12CE12C84E0C82ED12C8091B80224
:103A5000F81630F08E2DCDB7DEB7E8E00C94FB27DA
:103A60000F2D10E0E9B1E1704A9940C080E08E2B43
:103A7000D801A654BD4FEC919E2F93709817A1F1D9
:103A8000EE0FEE0FE82BEC93EF70F0E0E453FE4FF7
:103A9000E801C754DD4F80819881890F888320E039
:103AA00084305CF0F801E954FD4F80818F5F8083A2
:103AB00060E08F2D0E94EA1C21E088818D3F5CF43C
:103AC000F801E954FD4F80818150808361E08F2DA2
:103AD0000E94EA1C21E08881082E000C990BB60197
:103AE0000E9468278883E22AF394B0CF82E0BFCF98
:103AF000CF93DF93EB0186319C4711F50E94DE0BDB
:103B00009D81992399F08A7A91E009F490E090934D
:103B1000BB02811109C089E20E94B60B0E94370CDA
:103B200080E0DF91CF91089585E3F6CF8091BB02CD
:103B3000811104C089E20E94BE0BF0CF85E3FBCF68
:103B400081E0EFCF0F931F93CF93DF93C42FD22F3A
:103B5000FC0185818823C9F04093BE020E943F206A
:103B60009093BD028093BC0280E28C0F883040F4B9
:103B7000C77081E001C0880FCA95EAF70E94F2047D
:103B8000DF91CF911F910F9108951091BE021413F0
:103B900032C08091BC029091BD020E945720883CA7
:103BA000910548F5C0E2CD0F1D17B9F080E2810FF5
:103BB000883040F4177081E001C0880F1A95EAF749
:103BC0000E94F904C83048F481E09D2F977001C02D
:103BD000880F9A95EAF70E94F204802F0E94E90468
:103BE000C83070F6D77081E001C0880FDA95EAF727
:103BF0000E94F904C5CF80E28C0F883008F6C770A8
:103C000081E001C0880FCA95EAF7F2CF0F93DB017C
:103C100088519C4787309105A0F5FC01E358F64D8B
:103C20000C949E2706E221EE41EE6AE17CE7CD018D
:103C30000E94A21D80E00F91089507E225EE45EE57
:103C40006BE17CE7F4CF06E221EE40EE68E17CE731
:103C5000EECF07E225EE44EE69E17CE7E8CF06E22D
:103C600021EE42EE6CE17CE7E2CF07E225EE46EE84
:103C70006DE17CE7DCCF08E221E045EE6EE17CE718
:103C8000D6CF15968C91882319F01092BE02D3CF0F
:103C900081E0D1CF9093DD018093DC010895909372
:103CA000C4028093C3020895E091C302F091C4025C
:103CB000309729F00190F081E02D0995089580E07A
:103CC0000895E091C302F091C402309799F02091D9
:103CD0002901222359F02091E90227FF07C0DC01C6
:103CE0002C9111962C93119726E02C930280F3814E
:103CF000E02D09950895E091C302F091C402309738
:103D000039F022E0DC012C930480F581E02D099547
:103D10000895A3E0B0E0EFE8FEE10C94E5272091E0
:103D2000C1023091C20228173907A1F09093C20254
:103D30008093C102E091C302F091C402309751F028
:103D400023E029839B838A830680F781E02DCE01BF
:103D5000019609952396E2E00C940128A3E0B0E0D7
:103D6000E4EBFEE10C94E5272091BF023091C00204
:103D700028173907A1F09093C0028093BF02E09109
:103D8000C302F091C402309751F024E029839B8351
:103D90008A830680F781E02DCE010196099523964E
:103DA000E2E00C940128FC013296809129018823DD
:103DB00021F08091E9029EE187FF96E080E091503A
:103DC00008F4089521912223D1F38F5FF8CF662361
:103DD00001F1209129012223F1F02091E90227FF2E
:103DE0001AC0462F4695469546954E3190F4677019
:103DF00021E030E002C0220F331F6A95E2F7840F02
:103E0000911DFC01828190E02823392381E0232B3E
:103E100069F480E00895FC013296089621912617F6
:103E200021F0E817F907D1F7F4CF81E008959C015C
:103E3000FC0132969FEF80E04191461751F09F3F81
:103E400019F4411101C0982F8F5F8630A9F79F3F69
:103E500009F40895290F311D97FD3A95F901628300
:103E60000895FC01329608962191261303C0DF01C4
:103E700011971C92E817F907B9F70895E62FE69510
:103E8000E695E695EE3168F4E80FF92FF11D6770BD
:103E900021E030E001C0220F6A95EAF78281822B8F
:103EA00082830895E62FE695E695E695EE3170F467
:103EB000E80FF92FF11D677021E030E001C0220FFB
:103EC0006A95EAF72095828128232283089520911C
:103ED0002901222339F02091E90227FF03C00E9423
:103EE0003E1F08950E94171F089520912901222343
:103EF00039F02091E90227FF03C00E94521F089564
:103F00000E94311F0895FC01329680912901882377
:103F100051F08091E90287FF06C08EE1DF011D921A
:103F20008A95E9F7089586E0F9CF46E050E00E94CF
:103F3000AB2821E0892B09F420E0822F0895089511
:103F40000E949F1F0895811106C081E08093C502E1
:103F50000E94A01F089582E0F9CF83E08093C502FC
:103F60000E94A01F08950E94A31F089581E08093DE
:103F7000C5020E94A01F08950E94B61F08950895CB
:103F800008950E94C01F0895089508950E94BF1FBC
:103F900008950E94C41F0E9418110E94C51F80E04E
:103FA0000E94B81091E0811101C090E0892F08951E
:103FB00085B7806885BF85B7806885BF08951F92E3
:103FC0001FB61F9211248F939F93AF93BF9380913D
:103FD000C602811113C08091040390910503A09142
:103FE0000603B09107034196A11DB11D8093040300
:103FF00090930503A0930603B0930703BF91AF917D
:104000009F918F911F901FBE1F90189580910C0358
:10401000843031F10E94C5031092C60288E190E01D
:1040200020E40FB6F894A895809360000FBE20930B
:10403000600083B7817F846083BF83B7816083BF63
:104040007894889583B78E7F83BF0FB6F894A89530
:1040500080916000886180936000109260000FBEC4
:1040600008950E9454070E94CA03089582E084BD07
:1040700093E095BD9AEF97BD80936E0008952FB79A
:10408000F8948091040390910503A0910603B091E8
:1040900007032FBF08952FB7F89460910403709120
:1040A000050380910603909107032FBF08959C019B
:1040B0004FB7F8948091040390910503A0910603F3
:1040C000B09107034FBF821B930B089578941F9202
:1040D0001FB61F9211248F939F93AF93BF9380912C
:1040E000040390910503A0910603B0910703019684
:1040F000A11DB11D8093040390930503A0930603B3
:10410000B0930703BF91AF919F918F911F901FBEF6
:104110001F90189587E797E7909301088093000810
:1041200088E19AE00FB6F894A895809360000FBEDE
:1041300090936000FFCF88E19AE00FB6F894A895BD
:10414000809360000FBE90936000FFCF8091E702E4
:1041500008959B01BA0190910C039430E9F48F709B
:104160008093E9009FEF8091E800915085FD06C0A3
:1041700085ED8A95F1F700009111F5CF8091E80067
:1041800085FF0AC050E040E0C9010E94B32280913F
:10419000E8008E778093E800089543E050E0BC018A
:1041A00082E00E94A920089546E050E0BC0182E030
:1041B0000E94A9200895CF93DF93EC0180912901FB
:1041C000811111C048E050E0BE0181E00E94A920A9
:1041D00080E2FE01A7ECB2E001900D928A95E1F732
:1041E000DF91CF9108958091E90287FF05C040E2F9
:1041F00082E050E0BE01EACF48E081E0FACF809152
:104200000B03811109C00E9443240E94A0248091C5
:10421000E20084608093E200089510920B030895F9
:104220000E94B61F08956091080381E0611101C0EA
:1042300080E00E94AD1F089590910C0381E09430BE
:1042400009F080E0609108030E94B31F089542E0E6
:1042500061EC81E00E94BF2342E261EC82E00E94B7
:10426000BF2390910C0381E0943009F080E06091CD
:1042700008030E94A31F089580910E03833009F460
:1042800061C030F48130D1F1823009F49EC00895CC
:104290008A3009F48AC08B3009F46FC0893009F084
:1042A00050C080910D03813209F04BC08091110301
:1042B00090911203029708F044C08091E800877F34
:1042C0008093E8008091E80082FF37C09091F3006E
:1042D0008091F200029731F48091F100813011F069
:1042E000863021F48091F1008093E7028091E8000C
:1042F0008B778093E8000E94F32323C080910D0305
:10430000813AF9F48091E800877F8093E8008091FA
:10431000110390911203892B61F460E287EC92E023
:1043200070E00E9402238091E8008B778093E80080
:10433000089560E090E080E0F3CF80910C0381115C
:10434000C1CF089580910D03813AD9F7809111036F
:1043500090911203892BA9F78091E800877F8093C1
:10436000E8008091E80080FFFCCF809129018093D4
:10437000F1008091E8008E77BCCF80910D038132EF
:1043800001F78091110390911203892BD1F680914E
:10439000E800877F8093E8000E94F32380910F0359
:1043A000809329010E945407089580910D03813262
:1043B00041F68091E800877F8093E8000E94F32314
:1043C000809110038093E802089580910D03813A53
:1043D00009F0B7CF8091E800877F8093E800809153
:1043E000E80080FFFCCF8091E802C1CF84B7877FCF
:1043F00084BF0FB6F894A89580916000886180937F
:104400006000109260000FBE80E890E00FB6F89454
:1044100080936100909361000FBE0E94BC1F0895BD
:104420000E9443240E94A024E2EEF0E08081846098
:10443000808378940E941F27089581E291E00E9472
:104440004F1E089580910C03853031F480910C0348
:10445000853019F00E94312008950E940620809135
:104460000A03882399F30E94C91F882379F30E94C5
:104470009D220E945407EACF08959A0140911303A8
:10448000509114030E9445220895492F5527433027
:10449000510519F168F44130510509F444C0423026
:1044A000510509F445C090E080E050E040E025C0AF
:1044B0004132510549F142325105A9F780E490E0BB
:1044C00049E054E061157105C1F086EB90E043E5E9
:1044D00053E06130710589F0E6CF9927813091056D
:1044E00081F0009729F00297F1F6E0EDF2E002C0CA
:1044F000E2E0F3E0849190E0AF01F9015183408361
:104500000895E2EEF2E0F6CF89E090E048E153E072
:104510006115710591F389E090E041E353E061306A
:10452000710559F3C0CF82E190E041E453E0E5CF5B
:104530008BE390E046E053E0E0CF80E189BD82E18B
:1045400089BD09B400FEFDCF8091D8008F7D809396
:10455000D8008091E00082608093E0008091E000CC
:1045600081FDFCCF0895AF92BF92CF92DF92FF9270
:104570000F931F93CF93DF936C01EB018A010E948D
:104580001224F82E811123C00115110539F0F8010C
:1045900080819181C81BD90BC80ED91EB12CA12CCA
:1045A0002097A9F08091E80085FD22C08091E80065
:1045B0008E778093E80001151105A1F0F801808144
:1045C0009181A80EB91EB182A08285E0F82E8F2DB0
:1045D000DF91CF911F910F91FF90DF90CF90BF900F
:1045E000AF9008950E9412248823D1F2F82EEFCFC5
:1045F000F60181916F018093F1002197FFEFAF1ACF
:10460000BF0ACECFFC01809113039091140386174B
:104610009707A0F06115710529F49091E8009E7745
:104620009093E80090E06115710551F4911108C074
:104630008091E80082FF34C080E00895BC01F2CF91
:1046400080910C038823C1F18530C1F18091E8008D
:1046500083FD30C08091E80082FDEACF8091E800C0
:1046600080FFE1CF8091F3002091F200382F611597
:10467000710519F02830310558F091E028303105E6
:1046800009F090E02091E8002E772093E800CBCF4E
:1046900081918093F100615071092F5F3F4FE7CF07
:1046A00080910C03882341F0853041F08091E8002F
:1046B00083FFBECF81E0089582E0089583E00895EE
:1046C000FC01809113039091140386179707A0F0C3
:1046D0006115710529F48091E8008E778093E800D8
:1046E00090E06115710551F4911108C08091E800C6
:1046F00082FF35C080E00895BC01F2CF80910C03A9
:104700008823C9F18530C9F18091E80083FD31C06B
:104710008091E80082FDEACF8091E80080FFE1CF40
:104720008091F3002091F200382F6115710519F086
:104730002830310558F091E02830310509F090E03B
:104740008091E8008E778093E800CBCF84918093AE
:10475000F1003196615071092F5F3F4FE6CF809194
:104760000C03882341F0853041F08091E80083FFFD
:10477000BDCF81E0089582E0089583E00895982FE9
:10478000973028F08F708093E90081E0089590932E
:10479000E900242F762F50E0981731F07091EC004B
:1047A0002091ED005091F00021FD02C09F5FE8CF05
:1047B0003091EB003E7F3093EB003091ED003D7F78
:1047C0003093ED003091EB0031603093EB0070934B
:1047D000EC002093ED005093F0002091EE0027FDB7
:1047E000E5CF80E0089580910D0387FF13C080918D
:1047F000E80082FF06C08091E8008B778093E80094
:1048000004C080910C038111F2CF089580910C03B4
:104810008823D9F38091E80080FFF8CF8091E800E9
:104820008E77ECCF2091E4003091E50095E6A90168
:104830002091EC00822F817020FF06C08091E8005B
:1048400080FF06C080E008952091E80022FD1AC094
:1048500080910C03882389F0853089F08091EB00EA
:1048600085FD0FC02091E4003091E5004217530709
:10487000F9F29150E1F684E0089582E0089583E032
:10488000089581E008950E94B2240E94BA24E0EEC7
:10489000F0E0808181608083E8EDF0E080818F77B7
:1048A000808319BCA7EDB0E08C918E7F8C938081C2
:1048B0008F7E808310920B0308950F931F93CF93E5
:1048C000DF930E94B2240E94BA24C8EDD0E0888110
:1048D0008F77888388818068888388818F7D8883AB
:1048E00019BC10920C031092080310920A03109244
:1048F000090300EE10E0F80180818B7F80838881BE
:104900008160888342E060E080E00E94BF23E1EEA6
:10491000F0E080818E7F8083E2EEF0E08081816034
:104920008083808188608083F80180818E7F80838E
:10493000888180618883DF91CF911F910F910895C5
:10494000E8EDF0E080818F7E8083E7EDF0E080810C
:104950008160808384E082BF81E080930B030E94AA
:104960005D240895E8EDF0E080818E7F80831092D1
:10497000E20008951092DA001092E10008951F926B
:104980000F920FB60F9211242F933F934F935F9383
:104990006F937F938F939F93AF93BF93EF93FF9307
:1049A0008091E10082FF0BC08091E20082FF07C08E
:1049B0008091E1008B7F8093E1000E941E2780910F
:1049C000DA0080FF19C08091D80080FF15C0809167
:1049D000DA008E7F8093DA008091D90080FF96C044
:1049E00080E189BD82E189BD09B400FEFDCF81E08F
:1049F00080930C030E94FF208091E10080FF19C08A
:104A00008091E20080FF15C08091E2008E7F80934C
:104A1000E2008091E20080618093E2008091D80002
:104A200080628093D80019BC85E080930C030E94BB
:104A300013218091E10084FF2BC08091E20084FF6C
:104A400027C080E189BD82E189BD89B5982F917029
:104A500080FFFBCF8091D8008F7D8093D80080911C
:104A6000E1008F7E8093E1008091E2008F7E809351
:104A7000E2008091E20081608093E200809108036F
:104A8000882309F449C084E080930C030E941C2110
:104A90008091E10083FF29C08091E20083FF25C05F
:104AA0008091E100877F8093E10082E080930C0396
:104AB000109208038091E1008E7F8093E100809145
:104AC000E2008E7F8093E2008091E200806180931B
:104AD000E20042E060E080E00E94BF238091F000AD
:104AE00088608093F0000E941021FF91EF91BF91A8
:104AF000AF919F918F917F916F915F914F913F9176
:104B00002F910F900FBE0F901F90189519BC109207
:104B10000C030E940D2170CF8091E30087FD93E08C
:104B200090930C03B3CF1F920F920FB60F921124E4
:104B30002F933F934F935F936F937F938F939F93A5
:104B4000AF93BF93CF93DF93EF93FF93D091E9009F
:104B5000DF708091EC00C82FC17080FDC0E810921A
:104B6000E9008091F000877F8093F00078940E94A4
:104B7000D7251092E9008091F00088608093F000C2
:104B8000CD2BCF70C093E900FF91EF91DF91CF91D2
:104B9000BF91AF919F918F917F916F915F914F9155
:104BA0003F912F910F900FBE0F901F901895AAE282
:104BB000B0E0EDEDF5E20C94E4278DE093E0209178
:104BC000F100FC012193CF01F3E085319F07B9F794
:104BD0000E943C218091E80083FF1EC180910D035B
:104BE00090910E039A3008F017C1E92FF0E0EC57CE
:104BF000F64D0C949E27803899F0823809F00CC14C
:104C0000809111038F70873008F006C18093E9000E
:104C10008091EB0085FB882780F91092E90006C09F
:104C20008091090390910A03911182609091E800AC
:104C3000977F9093E8008093F1001092F1008091AB
:104C4000E8008E77E5C0882309F4D3C0823009F0EC
:104C5000E3C080910F038111D6C0809111038F7042
:104C60002FEF280F263008F0D7C08093E90020915D
:104C7000EB0020FFC8C0933031F48091EB008062DC
:104C80008093EB00C0C09091EB0090619093EB009B
:104C900021E030E001C0220F8A95EAF72093EA0074
:104CA0001092EA008091EB008860EACF8111B4C0D5
:104CB00010910F031F778091E3008078812B809300
:104CC000E3008091E800877F8093E8000E94F3234F
:104CD0008091E80080FFFCCF8091E30080688093A2
:104CE000E30082E0111183E080930C0395C08058AB
:104CF000823008F091C080910F03909110038C3D99
:104D000023E09207A1F583E08A838AE289834FB783
:104D1000F894DE01139620E03EE051E2E32FF0E04C
:104D200050935700E49120FF03C0E295EF703F5F7E
:104D3000EF708E2F90E0EA30C0F0C7968D939D9370
:104D40002F5F243159F74FBF8091E800877F809310
:104D5000E8006AE270E0CE0101960E940223809191
:104D6000E8008B778093E80057C0C096E7CF60914A
:104D7000110370911203AE014F5F5F4F0E943D22FD
:104D8000BC01892B09F448C09091E800977F90936B
:104D9000E80089819A810E946023E1CF8038E1F5A3
:104DA0008091E800877F8093E800809108038093DA
:104DB000F10045CF811130C090910F03923060F522
:104DC0008091E800877F8093E800909308030E9419
:104DD000F32380910803882311F084E005C08091BB
:104DE000E30087FDFACF81E080930C030E94272126
:104DF00013C080910F03813079F481E0933009F082
:104E000080E080930A031092E9008091E800877F98
:104E10008093E8000E94F3238091E80083FF0AC09A
:104E20008091E800877F8093E8008091EB008062AA
:104E30008093EB00AA96E3E00C9400280895CF93AA
:104E400080910C038823A1F0C091E900CF7090916C
:104E5000EC00892F817090FD80E8C82B1092E9004A
:104E60008091E80083FD0E94D725CF70C093E900B0
:104E7000CF910895991B79E004C0991F961708F007
:104E8000961B881F7A95C9F78095089587FB082E91
:104E9000062687FD819567FD61950E943A270EF4ED
:104EA000919507FC81950895AA1BBB1B51E107C092
:104EB000AA1FBB1FA617B70710F0A61BB70B881FAA
:104EC000991F5A95A9F780959095BC01CD01089539
:104ED00097FB072E16F4009407D077FD09D00E94A7
:104EE000542707FC05D03EF4909581959F4F089577
:104EF000709561957F4F0895A1E21A2EAA1BBB1BE6
:104F0000FD010DC0AA1FBB1FEE1FFF1FA217B30795
:104F1000E407F50720F0A21BB30BE40BF50B661FAB
:104F2000771F881F991F1A9469F76095709580956F
:104F300090959B01AC01BD01CF010895EE0FFF1FBD
:104F40000590F491E02D09940E94AC27332312F4CC
:104F50008A1B9B0B0C94BD27A29FB001B39FC0017D
:104F6000A39F700D811D1124911DB29F700D811D95
:104F70001124911D08950E94AC27B7FF0895821B4C
:104F8000930B08950E94AC27A59F900DB49F900DA0
:104F9000A49F800D911D11240895B7FF0C94C22782
:104FA0000E94C227821B930B08952F923F924F922B
:104FB0005F926F927F928F929F92AF92BF92CF92A9
:104FC000DF92EF92FF920F931F93CF93DF93CDB7B2
:104FD000DEB7CA1BDB0B0FB6F894DEBF0FBECDBF2A
:104FE00009942A88398848885F846E847D848C84FB
:104FF0009B84AA84B984C884DF80EE80FD800C8104
:105000001B81AA81B981CE0FD11D0FB6F894DEBFE6
:105010000FBECDBFED010895002E083090F0982FFF
:10502000872F762F652F542F432F322F222708509A
:10503000F4CF220F331F441F551F661F771F881F91
:10504000991F0A95B2F7002D089597FD1094002E30
:10505000083098F00850232F342F452F562F672FF4
:10506000782F892F912DF4CF159497958795779563
:10507000679557954795379527950A95AAF711246F
:10508000002D08958F929F92AF92BF92CF92DF92A0
:10509000EF92FF92CF93DF93EC01688179818A814F
:1050A0009B81611571058105910521F464E279ED1B
:1050B0008BE597E02DE133EF41E050E00E941929A4
:1050C00049015A019B01AC01A7EAB1E40E94C22741
:1050D0006B017C01ACEEB4EFA50194010E94D027D6
:1050E000DC01CB018C0D9D1DAE1DBF1DB7FF03C0A4
:1050F0000197A109B04888839983AA83BB839F77CE
:10510000DF91CF91FF90EF90DF90CF90BF90AF9065
:105110009F908F9008950E944228089580E091E02A
:105120000E9442280895B0E0A0E08093000190938F
:105130000101A0930201B09303010895FC014150C5
:10514000504030F001900616D1F73197CF01089505
:10515000882799270895FB01DC0104C08D910190F7
:10516000801921F441505040C8F7881B990B0895CD
:10517000FB01DC0102C001900D9241505040D8F774
:105180000895F999FECF92BD81BDF89A992780B50F
:105190000895A6E1B0E044E050E00C940B29A8E1AA
:1051A000B0E042E050E00C940B29DC01A40FB51FE5
:1051B0004150504048F0CB01840F951F2E910E9422
:1051C000E62841505040D0F70895262FF999FECF98
:1051D00092BD81BDF89A019700B4021639F01FBA4A
:1051E00020BD0FB6F894FA9AF99A0FBE0895039667
:1051F000272F0E94E6280E94E528252F0E94E628F6
:10520000242F0C94E6280196272F0E94E6280C9460
:10521000E528DC01CB01FC01F999FECF06C0F2BD07
:10522000E1BDF89A319600B40D9241505040B8F764
:105230000895052E97FB1EF400940E94302957FD17
:1052400007D00E947C2707FC03D04EF40C94302931
:1052500050954095309521953F4F4F4F5F4F0895A2
:1052600090958095709561957F4F8F4F9F4F0895D2
:10527000F894FFCF3F053F058F058F05F405100615
:105280006E056E0515068606950695067F1B861B20
:105290008D1B921B971B9C1BA11BA61BAB1BB01B42
:1052A000B51BBA1BBE1BC31BC61BC91BCC1BCF1B0C
:1052B000D11BD41BD61B5F1CD31C671C311C351C97
:1052C0006B1C391C6F1C7B1C451CCC1C491C7F1C97
:1052D0004D1C831CAB1C511C871CB21C571C8D1C05
:1052E000951C3D1C731C411C771C5B1C911CA11C54
:1052F000BB1CCA1C2B1C631CDA1C231E291E121E7D
:105300001D1E2F1E351E3B1EFB2523260C27232684
:0C5310000C27562677260C27CE26DA261E
:10531C00010000005002280850011E0A140101016E
:10532C0002000500050501191A1B1C1D1E1F20215A
:10533C0022A620DB20D420CD2001E200E900EA00E7
:10534C00B500B600B700CD008301CC008A019201F4
:10535C0094012102230224022502260227022A029A
:10536C00B300B4006F0070009F01CB019F02A0023C
:10537C00818283E200E900EA00B500B600B700CDF7
:10538C00008301CC008A01920194012102230224A2
:10539C00022502260227022A02B300B4006F007015
:1053AC00009F01CB019F02A002818283379496F665
:1053BC00F700010202020206060609090909090999
:1053CC000F0F0F0F0F0F151515181919191919198A
:1053DC0019191919232425252525252500FF010038
:0C53EC00010000FFFF0000010001FF00B5
:00000001FF
